:100000000C9437040C947E040C947E040C947E04AF
:100010000C947E040C947E040C947E040C947E0458
:100020000C947E040C947E040C941E2B0C94F02BE8
:100030000C9479210C947E040C947E040C947E0420
:100040000C947E040C947E040C947E040C947E0428
:100050000C947E040C94E1210C947E040C947E0498
:100060000C947E040C947E040C947E040C947E0408
:100070000C947E040C947E040C947E040C947E04F8
:100080000C947E040C947E040C947E040C947E04E8
:100090000C947E040C947E040C947E040C947E04D8
:1000A0000C947E040C947E040C947E0400080208D8
:1000B0000D080408060808080A080C080F081108AB
:1000C00013081E081508170819081B081D08200822
:1000D0004B174B1785178517BA17DA174719831966
:1000E0001C188319CC18CC183F19831983197E1951
:1000F000D918D918D918D918D918D918D918D91878
:10010000D918D918D918D918D918D918D918D91867
:10011000EB18F818FF1806191019121A121A241AD7
:10012000241A1B1A241A241A241A121A121A201A10
:10013000241A241A201A5D2C842C762D842C762DDA
:10014000D02CF32C762D492D582D6572676F646F76
:10015000785F657A2F64656661756C7420402070E5
:100160006C616E636B2D342E322D31322D67393236
:10017000376566382D6469727479006572676F64DB
:100180006F785F657A2F64656661756C74204020B6
:10019000706C616E636B2D342E322D31322D6739C8
:1001A00032376566382D6469727479000000F0A1F9
:1001B00029002B000100E100E00000001E001400F7
:1001C00004001D61E3004D001F001A0016001B0013
:1001D000E200E200200008000700060050002C00AA
:1001E00021001500090019004F004A0022001700E5
:1001F0000A0005000000E104460001530000006F02
:100200000000E30035002900000005000000500058
:1002100023001C000B00110000004F0024001800F8
:100220000D0010002E00520025000C000E003600BC
:1002300034002800260012000F00370030002B0089
:100240002700130033003800310051002D002A0030
:100250002800E5008700000029002B000100E100D4
:10026000E00000003A001E0220022202E3004D00DE
:100270003B001F0221022302E200E2003C002F02A9
:1002800026022F0001002C003D0030022702300022
:1002900001004A003E003102350035020000E10451
:1002A00046000100000001000000E30001002900F9
:1002B00000000100000050003F0001000100240286
:1002C00000004F00400001004C00010050005200AF
:1002D00041004A004D0052005100280042004B00EE
:1002E0004E0001004F002B0043002F002E0289001A
:1002F0002E005100440045002800E50001000000E8
:1003000001000100010001000100000001000100E6
:10031000010001000100010001000100F2000100E4
:10032000010001000100F000F1000100F4000100F3
:1003300001000100F3000100F500010001000100CF
:1003400001000100000001000100010000000100A7
:100350000000010001000100000001000000010098
:100360000100010001000100000001000100010086
:1003700001000100A9000100010001000100AC0022
:10038000AA00B600010001000100AB00A8000100B6
:100390000100010001000100010001000100010055
:1003A000AE0001000100000000000000000000009D
:1003B0002A2B2800000000000000000000000000C0
:1003C00000000029000000002C1E342021222434CB
:1003D0002627252E362D3738271E1F20212223249D
:1003E00025263333362E37381F0405060708090A39
:1003F0000B0C0D0E0F101112131415161718191AD5
:100400001B1C1D2F3130232D350405060708090A52
:100410000B0C0D0E0F101112131415161718191AB4
:100420001B1C1D2F3130354C000000000000000067
:1004300000000000000000000000000000000000BC
:1004400000000000000000000001010101010100A6
:100450000101010100000000000000000000000098
:100460000000010001000101010101010101010180
:10047000010101010101010101010101010101016C
:100480000101010000000101000000000000000067
:10049000000000000000000000000000000000005C
:1004A00000000001010101006801F000B4007800C3
:1004B0005A007F3F1F643214783C1E1E140A050048
:1004C0000000000101010202030405050607090AF4
:1004D0000B0C0E0F1112141517191B1D1F212325AC
:1004E000282A2C2F313436393B3E414346494C4F64
:1004F0005255585A5D6164676A6D707376797C7F76
:100500008386898C8F9295989B9EA2A5A7AAADB051
:10051000B3B6B9BCBEC1C4C6C9CBCED0D3D5D7DA69
:10052000DCDEE0E2E4E6E8EAEBEDEEF0F1F3F4F530
:10053000F6F8F9FAFAFBFCFDFDFEFEFEFFFFFFFFF9
:10054000FFFFFFFEFEFEFDFDFCFBFAFAF9F8F6F5F3
:10055000F4F3F1F0EEEDEBEAE8E6E4E2E0DEDCDA1B
:10056000D7D5D3D0CECBC9C6C4C1BEBCB9B6B3B043
:10057000ADAAA7A5A29E9B9895928F8C8986838011
:100580007C797673706D6A6764615D5A5855524F15
:100590004C494643413E3B393634312F2C2A2825DD
:1005A00023211F1D1B1917151412110F0E0C0B0AF6
:1005B000090706050504030202010101000000000D
:1005C000000000000101010101010101010202021C
:1005D00002020202020203030303030303030404EF
:1005E00004040404050505050506060606060707B6
:1005F0000707080808080909090A0A0A0A0B0B0B69
:100600000C0C0C0D0D0D0E0E0F0F0F101011111103
:100610001212131314141515161617171818191982
:100620001A1A1B1C1C1D1D1E1F1F202021222223E5
:1006300024252526272728292A2B2B2C2D2E2F2F22
:1006400030313233343536363738393A3B3C3D3E3B
:100650003F4041424344464748494A4B4C4D4F5026
:10066000515253555657585A5B5C5E5F60626364E3
:100670006667696A6C6D6E707173747678797B7C6D
:100680007E8081838486888A8B8D8F9192949698C0
:100690009A9B9D9FA1A3A5A7A9ABADAFB1B3B5B7D9
:1006A000B9BBBDBFC1C4C6C8CACCCFD1D3D6D8DAB6
:1006B000DCDFE1E4E6E8EBEDF0F2F5F7FAFCFF163B
:1006C000034500720067006F0044006F007800204F
:1006D0000045005A00000016034500720067006FD5
:1006E0000044006F007800200045005A000000041C
:1006F00003090409026D00040100A0FA09040000C6
:100700000103010100092111010001224000070538
:10071000810308000A090401000103010200092104
:1007200011010001224D000705820308000A090497
:10073000020001030000000921110100012236001E
:100740000705830308000A090403000103000000F1
:10075000092111010001223900070584032000014D
:100760001201100100000008EDFE07130100010254
:10077000000105010906A101050719E029E7150097
:1007800025019508750181020508190129059505BE
:10079000750191029501750391010507190029F76B
:1007A0001500250195F875018102C005010980A198
:1007B0000185021601002603001A81002A830075B4
:1007C0001095018100C0050C0901A10185031601E6
:1007D00000269C021A01002A9C02751095018100D6
:1007E000C005010902A1010901A10005091901299A
:1007F0000515002501950575018102950175038197
:10080000010501093009311581257F95027508819F
:100810000609381581257F950175088106050C0AA2
:1008200038021581257F950175088106C0C0050134
:100830000906A101050719E029E71500250195081A
:1008400075018102950175088101050819012905C5
:100850009505750191029501750391010507190030
:1008600029FF150026FF00950675088100C0112498
:100870001FBECFEFDAE0DEBFCDBF04B603FE27C058
:100880008091BA039091BB03A091BC03B091BD03CA
:100890008730904BA740B04BD1F41092BA0310921E
:1008A000BB031092BC031092BD0314BE84B7877FB4
:1008B00084BF0FB6F894A8958091600088618093FA
:1008C0006000109260000FBEE0E0FFE3099511E0C8
:1008D000A0E0B1E0E4E4FCE502C005900D92AC3D7F
:1008E000B107D9F723E0ACEDB1E001C01D92AA3BFE
:1008F000B207E1F70E944B280C94202E0C940000C4
:100900001092B9008AE08093B800089594EA909319
:10091000BC009091BC0097FFFCCF9091B900987FEC
:10092000983021F0903111F081E008958093BB0060
:1009300084E88093BC008091BC0087FFFCCF80914D
:10094000B900887F883111F0803471F780E0089514
:1009500084E98093BC008091BC0084FDFCCF0895A5
:100960008093BB0084E88093BC008091BC0087FF2B
:10097000FCCF9091B900987F81E0983209F480E033
:10098000089584E88093BC008091BC0087FFFCCF71
:100990008091BB00089580B38C7080BB81B3836F5E
:1009A00081BB089580910001811115C080E40E94EF
:1009B00086048093000181110CC082E10E94B00482
:1009C00080930001811105C08FEF0E94B0048093D5
:1009D00000010E94A80484B1807F84B985B1807F22
:1009E00085B98AB1837F8AB98BB1837F8BB93E98F1
:1009F000469808950C9449070E94BF068093000111
:100A00000E94D2040E94CB042DED31E0E1E3F2E03C
:100A10004EE04E0F119280E090E0D901A80FB91F6F
:100A20001C92019686309105C1F72A5F3F4F4E1305
:100A3000F1CF0C94410A0E94BF06809300010E94EE
:100A4000D2040E94CB04E1E3F2E08EE08E0F11921B
:100A50008E13FDCF089526E0829FC0011124FC0172
:100A6000E352FE4F20E030E080E041E050E0908132
:100A7000992319F09150908307C0BA01022E01C04A
:100A8000660F0A94EAF7862B2F5F3F4F3196263088
:100A9000310569F7089596E0699FB001112420E0BF
:100AA00030E090E04FE0FC01022E02C0F595E795A2
:100AB0000A94E2F7E0FF06C0F901E60FF71FE352E0
:100AC000FE4F40832F5F3F4F2630310561F7089579
:100AD000AF92BF92CF92DF92EF92FF920F931F934C
:100AE000CF93DF9380910001882379F08091DC011E
:100AF0008F5F8093DC01811108C00E94BF06809344
:100B00000001811102C00E94510681E3E82E82E0BB
:100B1000F82E00E010E0CC24C394D12CAA24A39496
:100B2000C02F0730110500F58091000181113CC0F4
:100B300080E40E94860480930001811112C082E14A
:100B40000E94B0048093000181110BC0C601002EE9
:100B500001C0880F0A94EAF780950E94B004809340
:100B600000010E94A80420C00A30A1F028F4083037
:100B700059F0093061F005C00C3089F070F00D308B
:100B800089F0209A289810C0219A29980DC0229A9D
:100B90002A980AC0239A2B9807C0529A01C0539AE8
:100BA0005B9802C03E9A469880EA8A95F1F78C2FAE
:100BB0000E942B05D82F0730110518F580910001F0
:100BC000811144C080E40E94860480930001882340
:100BD00011F0B12C12C083E10E94B0048093000197
:100BE0008111F7CF81E40E94860480930001811176
:100BF000F0CF0E94C104B82EB0940E94A8049B2D8F
:100C000026C08FB181708A25799902C092E001C017
:100C100090E0892B7C9902C094E001C090E0982B71
:100C20007D9902C038E001C030E0932B7E9902C06C
:100C300020E101C020E0922B2FB12095221F222716
:100C4000221F2295220F207E922B01C090E0F701F7
:100C500080819D23D095D823D92B6C2F8D270E947E
:100C60004B05F701D1937F010E94D2040F5F1F4F04
:100C70000E30110509F054CF0E94430A81E0DF9144
:100C8000CF911F910F91FF90EF90DF90CF90BF9089
:100C9000AF900895E82FF0E0EF5CFD4F808108955C
:100CA000089556985E9825982D9826982E982798FE
:100CB0002F988FEF90E09093890080938800909315
:100CC0008B0080938A0090938D0080938C00259AEE
:100CD0002D9A2FEF80E792E0215080409040E1F77D
:100CE00000C00000269A2E9A2FEF80E792E0215054
:100CF00080409040E1F700C00000279A2F9A2FEF24
:100D000080E792E0215080409040E1F700C0000071
:100D100025982D982FEF80E792E021508040904059
:100D2000E1F700C0000026982E982FEF80E792E0B0
:100D3000215080409040E1F700C0000027982F9894
:100D400056985E9825982D9826982E9827982F9833
:100D5000089589EA8093800089E080938100249837
:100D60002C983F988AB18F7C8AB96E98479A8BB13C
:100D700080638BB9769A0E9451060C94480780E2F2
:100D80008093000180913F0281110EC00E94800477
:100D900081E080933F022FEF83ED90E3215080406C
:100DA0009040E1F700C0000080E40E948604809338
:100DB000000181112EC00E94B004809300018111B6
:100DC00028C00E94B00480930001811122C08FE3EB
:100DD0000E94B0048093000181111BC00E94A804EE
:100DE00080E40E94860480930001811112C08CE08F
:100DF0000E94B0048093000181110BC00E94B004D6
:100E000080930001811105C08FE30E94B00480939C
:100E100000010E94A804809100010895662319F042
:100E2000613051F00EC0FC018281882351F08BE7C4
:100E300091E00E943E0A05C0FC01828181110E945E
:100E40007B2080E090E00895FB01883D2CE592072F
:100E500069F0893D2CE5920789F0873D9C45B1F406
:100E600082818823A1F00E947B200EC0828188238A
:100E700071F08AE491E00E943E0A06C082818823D4
:100E800031F081E00E942D1180E0089581E0089505
:100E9000089560910203709103038091040390917F
:100EA00005030E942B2056985E9825982D98269829
:100EB0002E9827982F98813019F0823021F00895CC
:100EC000259A2D9A0895269A2E9A089581E00895DC
:100ED0000C9424070E94001A2FEF84E39CE0215019
:100EE00080409040E1F700C000000C940722FF9280
:100EF0000F931F93CF93DF938C01FC01C081D181AD
:100F000080919102811113C08281882349F0CE0122
:100F10000E94211FF82E682FCE010E94C41E04C01B
:100F2000CE010E94F41EF82EBE018F2D04C0CE010A
:100F30000E94211FBE010E94580AEC01B8010E94C4
:100F40006807882309F45BC2B801CE010E94B40C83
:100F5000882309F454C2B801CE010E94030D8823EE
:100F600009F44DC2C73CFCE5DF0741F4F80182817A
:100F7000882309F444C20E94131141C2C83C8CE585
:100F8000D80708F000C1C03C9CE5D90741F4F8013E
:100F90008281882309F433C20E94B21130C2C13C5D
:100FA000ECE5DE0708F0ACC0C531FCE5DF0708F072
:100FB00057C0C2308CE5D80708F47BC0F8018281A5
:100FC000882309F46EC00E949C20811102C00E94F7
:100FD0007B200E94AF2090E09093AC038093AB0302
:100FE000FE01E350FC45E231F10530F4EA5AFF4FCF
:100FF0008091AB030C94D22D8091AB03816027C00C
:10100000826025C0846023C0806121C080621FC0CF
:1010100080641DC080681BC08460886018C08E7F9B
:1010200016C08D7F14C08B7F12C08F7E10C08F7D45
:101030000EC08F7B0CC08F770AC08B7F877F07C065
:1010400087FB222720F991E0922790FB87F9809374
:10105000AB038091AB030E94B3200E94001ACFC162
:10106000C531DC45C9F40E94F21F282FF8018281A6
:1010700040910301509104018823B9F12A7A91E04B
:1010800009F490E09093400291112DC069E2CA01E9
:101090000E9414210E94BF1F81E08093450280932B
:1010A0004602C801DF91CF911F910F91FF900C94E0
:1010B0006607C1159CE5D90741F4F80182818823B0
:1010C00009F49DC10E946A079AC1C130DC4521F72D
:1010D000F8018281882309F492C180912F038160F5
:1010E00080932F038CC165E3D2CF809140028111A0
:1010F00002C069E201C065E3CA010E941F21CACF94
:10110000C33C8CE5D80741F4F8018281882309F4B7
:1011100076C10E94B51073C1C43C9CE5D907C0F4E8
:10112000C13CECE5DE0741F4F8018281882309F433
:1011300066C10E94A81163C1C23CDC4509F0ACCF76
:10114000F8018281882309F45AC10E949D1057C179
:10115000F8018281C53CFCE5DF0731F4882309F4FE
:101160004EC10E94E6104BC1C63CDC4530F48823DA
:1011700009F445C10E94D41042C1882309F43FC13B
:101180000E94F8103CC1CD3CECE5DE07C1F4F8014B
:101190008281882309F433C10E94730F6531710580
:1011A0008105910540F00E94730F6731710581053B
:1011B000910508F4BECF85E10E942D1120C1CE3CDF
:1011C000FCE5DF0708F077C0CA3C8CE5D807B1F42E
:1011D000F8018281882309F412C10E94730F6630DE
:1011E00071058105910540F00E94730F683071050B
:1011F0008105910508F49DCF86E0DECFCB3C9CE5D0
:10120000D90728F5C83CECE5DE0739F4F8018281FE
:10121000882309F4F4C081E0CFCFC93CDC4509F054
:101220003BCFF8018281882309F4E9C00E94730F43
:10123000623071058105910540F00E94730F6530A1
:1012400071058105910508F474CF82E0B5CFCB3CE0
:101250008CE5D807B1F4F8018281882309F4CFC066
:101260000E94730F693071058105910540F00E945D
:10127000730F6E3071058105910508F45ACF89E02E
:101280009BCFCC3CDC4509F007CFF8018281882355
:1012900009F4B5C00E94730F6F3071058105910587
:1012A00040F00E94730F643171058105910508F4C7
:1012B00040CF8FE081CFC03DECE5DE0761F5F8015E
:1012C0008281882351F0109245020E94AB219093B5
:1012D00042028093410282E03DC00E94F21F85FFDE
:1012E00005C081E0809345028093460280914502CB
:1012F00081110FC080914102909142020E94B7215A
:10130000883C910530F486E20E94AD1586E20E9489
:10131000A11682E030C0C13DFCE5DF0778F1C43D95
:10132000ECE5DE0709F44DC0C53DFCE5DF0709F437
:101330004EC0C13DDC4509F0AFCEF8018281882363
:1013400061F0109246020E94AB2190934402809378
:10135000430280E20E94001752C00E94F21F81FFE8
:1013600005C081E080934502809346028091460249
:101370008823A9F180E20E94071741C0CE3C8CE58A
:10138000D80731F4F80182818823C9F188E114CFAC
:10139000CF3CDC4509F080CEF8018281882379F1C9
:1013A0000E94730F693171058105910540F00E941B
:1013B000730F623271058105910508F4BACE89E197
:1013C000FBCEF80182818823D1F080E005C0F801CE
:1013D00082818823A1F082E00E94E12810C08091E0
:1013E0004302909144020E94B721883C910510F677
:1013F00087E20E94AD1587E20E94A116BBCF80E074
:10140000DF91CF911F910F91FF9008950F931F933C
:10141000CF93DF938C01D62FF8012491222349F139
:1014200030E0F901E855FC4FC491F901E85DFB4F4C
:101430002491222359F081EE0E94AD158C2F0E9439
:10144000AD158C2F0E94A11681EE04C08C2F0E9436
:10145000AD158C2F0E94A1160F5F1F4F8D2F882373
:10146000D9F2EFE9FFE03197F1F700C000008150B9
:10147000F6CFDF91CF911F910F91089560E00C940A
:10148000060A0C94A9060C94FA04282F882339F034
:1014900090E02A3010F44D9608950697089587E25B
:1014A00090E0089508950C94520A0C94530A0895FC
:1014B00096E0799FF001112494E5899FE00DF11DDC
:1014C0001124E60FF11DEE0FFF1FE055FE4F859131
:1014D00094910895880F991FFC01E455FE4F859162
:1014E00094910895CF93DF930E94580A0E940A0CAA
:1014F000EC01811520E49207B0F5811540E39407D3
:1015000008F0E1C0803E9105D0F4803C910508F0E0
:101510006FC0883A910570F4853A910508F06BC068
:101520008130910509F472C108F429C1049708F0CB
:101530006DC125C18D3B910508F468C020C18F3F66
:10154000910509F048F4803F910508F0B6C0883E47
:10155000910508F45BC113C1811550E2950708F4A9
:1015600055C19F70ACC0811564E59607D8F4C115CC
:1015700083E5D80708F0E2C0C11521E5D20740F4A1
:10158000C11540E5D40708F0A7C0DF70D06A3EC19E
:10159000C11552E5D50708F0BBC0DC2FCC27C16FC1
:1015A000D06A34C1811566E5960750F4C11585E50A
:1015B000D80708F0D9C0DC2FCC27C46FD06A26C169
:1015C000811528E5920708F4DAC0811549E59407EA
:1015D00008F4D0C090568115904208F0D0C08D2FED
:1015E0008F710E94870CDD27D0628F71D82B0EC1BE
:1015F000805C910964C0853A910509F4C3C0863ABC
:10160000910509F0C2C0C2E8D0E400C1883A910552
:1016100009F4BEC0893A910509F4BDC08A3A910522
:1016200009F4BCC08B3A910509F4BBC08C3A910512
:1016300009F4BAC08B3B910509F4B9C08C3B910504
:1016400009F4B8C08D3A910509F4B7C0803B910503
:1016500009F4B6C08E3A910509F4B5C08F3A9105E8
:1016600009F4B4C0813B910509F4B3C0823B9105F4
:1016700009F4B2C0833B910509F4B1C0843B9105E4
:1016800009F4B0C0853B910509F4AFC0863B9105D4
:1016900009F4AEC0873B910509F4ADC0883B9105C4
:1016A00009F4ACC0893B910509F4ABC08A3B9105B4
:1016B00009F4AAC0C0E0D4E4A9C0D065A7C00E94C4
:1016C0006A0AEC01A3C09927D3FF03C0EC01D86CD0
:1016D0009DC0EC01D06C9AC02C2F237081E090E06B
:1016E00002C0880F991F2A95E2F79C689E0144E08A
:1016F000369527954A95E1F72370922BCF70C695C2
:10170000C69560E2C69FE0011124C82BD92B7EC08C
:101710002C2F2695269580E2289F90011124C370D6
:10172000DD2781E090E0AC0102C0440F551FCA954F
:10173000E2F7EA01C22BD32BDC6868C02C2F269578
:10174000269580E2289F90011124C370DD2781E057
:1017500090E0AC0102C0440F551FCA95E2F7EA01C0
:10176000C22BD32BDA6852C0CF71DD27DC2FCC27F8
:10177000D0624CC0DC2FCC27C06FD06A47C0C0E01D
:10178000D0E044C0C1E8D0E441C0C3E8D0E43EC0EA
:10179000C2EED4E43BC0C9EED4E438C0CAEED4E40F
:1017A00035C0C5EBD4E432C0C6EBD4E42FC0C3EBE4
:1017B000D4E42CC0C4EBD4E429C0C7EBD4E426C0E5
:1017C000CCECD4E423C0CDECD4E420C0C3E8D5E411
:1017D0001DC0CAE8D5E41AC0C2E9D5E417C0C4E9FF
:1017E000D5E414C0C1E2D6E411C0C3E2D6E40EC011
:1017F000C4E2D6E40BC0C5E2D6E408C0C6E2D6E433
:1018000005C0C7E2D6E402C0CAE2D6E4CE01DF9149
:10181000CF9108958238910549F1B0F48133910553
:1018200009F458C048F48932910509F44EC08A324F
:10183000910509F454C008958533910509F440C019
:101840008933910599F00895833E910529F138F483
:10185000803E910591F0823E9105A1F00895863E6B
:101860009105F9F0873E910531F108952091AB0380
:1018700020FD3AC021FD38C008958091AB0380FD62
:1018800035C032C08091AB0382FF32C08091AB0380
:1018900084FD30C083EE39C08091AB0382FD28C047
:1018A000F5CF8091AB0383FF27C08091AB0384FD0C
:1018B00021C087EE2AC08091AB0383FD1DC0F5CF08
:1018C0008091AB0385FD1AC01BC08091AB0385FDE1
:1018D00017C014C08091AB0386FD14C015C0809161
:1018E000AB0386FD11C00EC080EE0FC089E30DC0B2
:1018F00082EE0BC080E009C086EE07C089E205C019
:1019000085E303C08AE201C081E390E00895CF93AC
:10191000C82F0E94AF2090E09093AC038093AB035C
:1019200082FF0DC09C2F9871983019F4C77FC46056
:1019300006C09C2F9471943011F4CB7FC86083FF54
:101940000DC09C2F9871983119F4C77EC46106C0F0
:101950009C2F9471943111F4CB7EC86184FDC77EB5
:101960008C2FCF91089508950F931F93CF93FB0170
:101970002281211102C0C1E041C08C01C0915402FA
:10198000C11125C086319C45B1F70E94B30C81E09E
:10199000809354020E94AB21909353028093520291
:1019A00010924702109249021092480210924B0284
:1019B00010924A0210924D0210924C0210924F0265
:1019C00010924E02109251021092500217C0809154
:1019D0005202909153020E94B721883C910558F61B
:1019E00090914702E92FF0E0EE0FFF1FE85BFD4FFB
:1019F000118300839F5F90934702C0E08C2FCF91AB
:101A00001F910F910895CF93DF93813020E89207C3
:101A1000D0F0FB0122812223B1F0EC01809155022C
:101A2000811109C08CE090E00E94D82D0E94270D02
:101A300081E0809355020E942E0DCE019F770E9477
:101A4000F60D0E94AA0D81E0DF91CF910895809359
:101A50005602682F8CE090E00C94EC2DE09103018D
:101A6000F091040180818093600381FF03C081EEC7
:101A70000E94A1168091600385FF03C085EE0E943D
:101A8000A1168091600380FF03C080EE0E94A11622
:101A90008091600384FF03C084EE0E94A1168091B0
:101AA000600382FF03C082EE0E94A1168091600352
:101AB00086FF03C086EE0E94A1168091600383FF1B
:101AC00003C083EE0E94A1168091600387FF03C0CC
:101AD00087EE0E94A11680915602823001F1A8F48F
:101AE0008823C9F0813079F580EE0E94AD1581EE32
:101AF0000E94AD1588E10E94AD1588E10E94A116F3
:101B000081EE0E94A11680EE1CC0843081F08530E9
:101B1000D1F486EE01C082EE0E94AD1514C082EEB3
:101B20000E94AD1587E50E94AD1587E50AC086EED7
:101B30000E94AD1586EE0E94A11688E10E94AD15A7
:101B400088E10E94A1168FE39CE90197F1F700C09C
:101B50000000089580915602813049F030F08230C3
:101B600021F0853051F486EE06C082EE04C08CE28E
:101B70000E94AD158CE20E94A1168091600381FF46
:101B800003C081EE0E94AD158091600385FF03C004
:101B900085EE0E94AD158091600380FF03C080EE4A
:101BA0000E94AD158091600384FF03C084EE0E9403
:101BB000AD158091600382FF03C082EE0E94AD15D7
:101BC0008091600386FF03C086EE0E94AD15809170
:101BD000600383FF03C083EE0E94AD158091600314
:101BE00087FF03C087EE0C94AD150895EF92FF9226
:101BF0001F93CF93DF937C01CCE0D0E097010C2EB4
:101C000002C0369527950A94E2F7122F1F70812F94
:101C10000E94450A0E94AD15812F0E94450A0E942C
:101C2000A1162497CC3F8FEFD80741F7DF91CF91D2
:101C30001F91FF90EF900895882319F05198599AB9
:101C400002C0519A59985098589A95E09A95F1F790
:101C50000000509A589895E09A95F1F70000882373
:101C600011F0519A599885E08A95F1F7000008958E
:101C70008BB18C7F8BB95098589A5198599A85E0BE
:101C80008A95F1F7000008958AB18C7F8AB985E0C2
:101C90008A95F1F70000519A599885E08A95F1F7F5
:101CA0000000509A589885E08A95F1F70000089551
:101CB0005098589A85E08A95F1F700005198599A02
:101CC00085E08A95F1F700000895CF93DF93D82F30
:101CD000C8E08D2F80780E941C0EDD0FC150C9F71F
:101CE00080E00E941C0E85E08A95F1F7000085E0F7
:101CF0008A95F1F7000080E0DF91CF9108952BB134
:101D0000342F309523233BB1432B3FB7F894FC018C
:101D1000680F791FE617F70789F0819198E04BB9B2
:101D2000000000C087FF2BB9880F000000C000C072
:101D300000C02BB900C09A9591F7ECCF3FBF089532
:101D4000AF92BF92CF92DF92EF92FF920F931F93C9
:101D5000CF93DF938C01EB01CFB6D090BC00F89409
:101D60008091BC008B7F8093BC000E94380E0E9443
:101D7000440E84E80E94650ECC0FDD1FCC0FDD1FE2
:101D800078015801AC0EBD1EEA14FB0431F0F701D6
:101D900081917F010E94650EF7CF0E94580ECFBE41
:101DA000D092BC00579A40E8BE01C801DF91CF91A4
:101DB0001F910F91FF90EF90DF90CF90BF90AF9069
:101DC0000C947F0EEF92FF920F931F93CF93DF93AC
:101DD000E901662309F44BC0242F30E0EFEFF0E077
:101DE000E61BF109B901E69F9001E79F300DF69FD0
:101DF000300D1124232F8B01031B11095CE3E52E09
:101E0000F12CB7010E94AA2DFB01BC01069FC00165
:101E1000079F900D169F900D1124B7010E94AA2DC7
:101E2000E230F105B1F040F4309779F0319711F5D7
:101E3000832F242F461B21C0E430F105A1F068F068
:101E40003597C1F4842F861B18C0832F262F230FAC
:101E500014C0862F830FE42F03C0E42FE61B842FCA
:101E6000432F2E2F0AC0842F462F430F06C0842FE6
:101E7000242F03C080E020E040E0E42FF0E0E154B4
:101E8000FA4F4491E22FF0E0E154FA4F9491E82F99
:101E9000F0E0E154FA4FE49149839883EA83DF91BB
:101EA000CF911F910F91FF90EF90089588E090E0FF
:101EB0000C94E02DAB01BC0188E090E00C94FE2D69
:101EC000E1E6F3E083E08083109262038FEF828388
:101ED00083836091610370916203809163039091A9
:101EE00064030C945A0F6091610360FF06C066950D
:101EF0006F7370E080E090E0089560E070E0CB01E7
:101F000008958091610380FF06C06FE070E089E66C
:101F100093E00C94A00E80E090E0FC01E759FC4FA8
:101F200011821082128204968C339105B1F7EDCFA5
:101F300020E030E0F901E759FC4F81836083428360
:101F40002C5F3F4F2C333105A9F70C94810FEF9292
:101F5000FF920F931F93CF93DF9300D000D0CDB7A4
:101F6000DEB7009161031091620320916303309109
:101F70006403009365031093660320936703309313
:101F800068032091610320FF21C0042FF62EE92E63
:101F9000182F9E012F5F3F4F0E94E20E8091650334
:101FA00010FB87F98093650316958091660380780E
:101FB000182BE0FA17F910936603F0926703009369
:101FC00068034B8169818A810E94980F0F900F905E
:101FD0000F900F90DF91CF911F910F91FF90EF9095
:101FE00008958F929F92AF92BF92CF92DF92EF921D
:101FF000FF920F931F93CF93DF93EC01062F142FC3
:102000008091610380FF8CC0982F9E77923021F4DD
:10201000CE010E94A70F5AC0E82FE695EF739EE30A
:102020009E0F9F73943018F4109164034FC09AE38D
:102030009E0F9F73993070F4881F8827881F909196
:102040006203292F220FC22FC82B97FB992790F9E3
:10205000D92F3CC087E28E0F8F738A30B8F5F0E03D
:102060007997E0FD02C021E001C02FEFEE7FE85537
:10207000FB4F859194916FE070E00E94AA2D26039A
:102080006001279FD00C11244E0188E9881A8EEF39
:10209000980A89E6E82E83E0F82E98E6A92EBB245C
:1020A000B394C401B5010E94AA2D9701412F602F5E
:1020B0000E94E20E8C0C9D1C94E0E90EF11C85EA56
:1020C000E81683E0F80669F70E94810F80916103AA
:1020D0009C2FC0FB87F980936103969580916203E2
:1020E0008078892BD0FB87F9809362030093630388
:1020F00010936403609161037091620380916303A4
:1021000090916403DF91CF911F910F91FF90EF9019
:10211000DF90CF90BF90AF909F908F900C945A0F0C
:10212000DF91CF911F910F91FF90EF90DF90CF90B3
:10213000BF90AF909F908F900895E1E6F3E02081EB
:10214000221F2227221F30916203432F440F842F26
:10215000822B37FB992790F90C9668E671E00E9474
:10216000BE2D438162810C94F10F20916103221FE7
:102170002227221F30916203432F440F842F822B8A
:1021800037FB992790F98C3091051CF4845A9E4FA7
:1021900001C00C9768E671E00E94BE2D4091640377
:1021A000609163030C94F10FE1E6F3E08081881FF6
:1021B0008827881F90916203292F220F97FB992768
:1021C00090F943816FEF822B0C94F10FE1E6F3E07D
:1021D0008081881F8827881F90916203292F220FF2
:1021E00097FB992790F9438160E0822B0C94F10FC3
:1021F00040916403842F90E0843F910514F4445F80
:1022000001C04FEF80916103881F8827881F90913C
:102210006203292F220F97FB992790F9609163039E
:10222000822B0C94F10F40916403842F90E00C9763
:1022300014F04C5001C040E080916103881F882752
:10224000881F90916203292F220F97FB992790F9FD
:1022500060916303822B0C94F10F9091610390FFC6
:1022600042C09178811102C0926007C0833210F0A1
:10227000946403C08F73880F982B909361036091CF
:1022800061037091620380916303909164030E94E3
:102290005A0F80916103982F9E77923019F4109213
:1022A0006C0210C0982F96959F732EE3290F2F7301
:1022B000273120F491E090936C0204C0995D9F73E4
:1022C0009A3068F3881F8827881F90916203292F0E
:1022D000220F97FB992790F9409164036091630363
:1022E000822B0C94F10F089580912F0381608093CD
:1022F0002F0381E080936D020E949C20811104C015
:102300000E947B200E94600F0E94560F6093610321
:102310007093620380936303909364036E7761F418
:102320000E94600F0E94560F6093610370936203D6
:10233000809363039093640381E080936C028091A7
:10234000610380FF04C086958F730C942D1108954E
:102350008091610386958F738F5F833208F081E0EF
:102360000C942D1180916103982F909590FB80F92A
:1023700080936103609161037091620380916303B4
:10238000909164030E945A0F8091610380FF04C002
:1023900086958F730C942D1110926C022FEF80E7AD
:1023A00092E0215080409040E1F700C000000C9482
:1023B000810FCF93C82F80916A0290916B020E9487
:1023C000B721EC2FF0E0E554FB4FE491F0E08E17DD
:1023D0009F0718F10E94AB2190936B0280936A02D1
:1023E000E0916902F0E0E154FB4F44918091610378
:1023F000881F8827881F90916203292F220F97FB3F
:10240000992790F960916303822B0E94A70F809116
:10241000690290E0019680936902CF910895CF936D
:10242000C82F80916702909168020E94B721EC2F1B
:10243000F0E0E854FB4FE491F0E08E179F07E8F0DE
:102440000E94AB21909368028093670240916403DD
:102450006091630380916502909166020E94A70FCC
:102460008091650290916602019668E671E00E9493
:10247000AA2D9093660280936502CF910895CF9222
:10248000DF92FF920F931F93CF93DF93F82E8091EB
:102490006302909164020E94B721EF2DE695F0E06F
:1024A000E854FB4FE491F0E08E179F07E8F10E949B
:1024B000AB21909364028093630209E613E0C0E0CD
:1024C000D0E088E6C82EDD24D394809161029091FB
:1024D00062028C0F9D1FB6010E94AA2D98014091A7
:1024E0006403609163030E94E20E68960C5F1F4FC5
:1024F000C83681E0D80749F70E94810F2091610218
:1025000030916202F0FE0AC0C9010196BE010E942C
:10251000AA2D909362028093610206C02150310976
:102520003093620220936102DF91CF911F910F914E
:10253000FF90DF90CF900895AF92BF92CF92DF923D
:10254000EF92FF920F931F93CF93DF93C82F80FFDB
:1025500002C01FEF01C011E080915F029091600204
:102560000E94B721C695EC2FF0E0EB54FB4FE491AD
:10257000F0E08E179F0708F466C00E94AB2190938D
:10258000600280935F0229E6C22E23E0D22E3BE652
:10259000E32E33E0F32EC0E0D0E0F7013197108254
:1025A000F6011082F701108294E0A92EB12C00E010
:1025B00080915E02800F87FD815F082E000C990BD1
:1025C000C817D907E9F4809164038A9DA0018B9D07
:1025D000500D112455954795559547958091610368
:1025E000881F8827881F90916203592F550F97FBEA
:1025F000992790F9960160916303852B0E94E20E62
:10260000010FF1E0AF1AB10899F6219684E0C80EE7
:10261000D11CE4E0EE0EF11CCF30D10509F0BDCFA6
:102620000E94810F80915E02113031F4811102C04D
:102630008EE007C0815005C090E00196BE010E9467
:10264000BE2D80935E02DF91CF911F910F91FF907D
:10265000EF90DF90CF90BF90AF9008950F931F93AE
:10266000CF93DF93C82F80915C0290915D020E940E
:10267000B721EC2FF0E0EE54FB4FE491F0E08E1721
:102680009F0708F464C00E94AB2190935D02809381
:102690005C0280E090E0FC01E759FC4F118210825F
:1026A000128204968C339105B1F7C0E0D0E00FE0C0
:1026B00010E0CE01B8010E94BE2DFC0180915B02AA
:1026C000082E000C990BEE0FFF1FEE0FFF1FC8170F
:1026D000D907FCF080910201082E000C990B8C1791
:1026E0009D07BCF09F0127593C4F80916103881FD3
:1026F0008827881F90916203592F550F97FB9927C0
:1027000090F94091640360916303852B0E94E20E6F
:1027100005C0E759FC4F1182108212822196CF30FA
:10272000D10539F60E94810F8091010190915B02E1
:10273000980F90935B0220910201280F20930201D1
:10274000121614F49E301CF0819580930101DF91E4
:10275000CF911F910F910895EF92FF920F931F93C6
:10276000CF93DF938091590290915A020E94B72132
:10277000883E9340D0F10E94AB2190935A028093FF
:102780005902C0915702D09158022196C170DD279D
:10279000D0935802C093570289E6E82E83E0F82EC2
:1027A00010E008E7812F8695FE01E80FF11DCF01AB
:1027B0008170992797014091640360916303FC0144
:1027C0000E9FC0010F9F900D11240E94E20E1F5F0B
:1027D000F4E0EF0EF11C1F3029F7DF91CF911F912C
:1027E0000F91FF90EF900C94810FDF91CF911F918B
:1027F0000F91FF90EF90089580916C02882391F1E2
:1028000090916103892F86958F732EE3280F2F7384
:10281000243018F482500C94D9112AE3280F2F7316
:10282000233018F486500C940F1227E3280F2F73CF
:10283000263018F489500C943F1221E3280F2F738F
:10284000263018F48F500C949C122BE2280F2F7313
:10285000233018F485510C942E139E77903311F485
:102860000C94AC13089590937302809372020895B0
:10287000E0917202F0917302309721F00190F081A3
:10288000E02D099480E00895E0917202F0917302C6
:10289000309721F00280F381E02D09940895E091B2
:1028A0007202F0917302309721F00480F581E02DDF
:1028B0000994089520917002309171028217930754
:1028C00071F09093710280937002E0917202F09126
:1028D0007302309721F00680F781E02D0994089566
:1028E00020916E0230916F028217930771F09093DE
:1028F0006F0280936E02E0917202F0917302309742
:1029000021F00084F185E02D0994089508950C9438
:1029100086140E94A2210E94FC040E9429220C9489
:102920007411CF92DF92EF92FF920F931F93CF9388
:10293000DF93CDB7DEB72B970FB6F894DEBF0FBE8F
:10294000CDBF0E94680585E7C82E82E0D82E00E042
:1029500010E0E02E802F0E944A06F60141916F019F
:10296000F42EF826B1F40F5F1F4F0E30110589F7D2
:102970008FEF89838A831B820E94AB218160782F2D
:102980009D838C8349815A816B818D810E94701552
:1029900040C090912F0391FF04C08B870E94500686
:1029A0008B8520E030E04F2D50E0922FBA01022EAF
:1029B00002C0759567950A94E2F760FF24C02E83E4
:1029C000EF8221E030E0690102C0CC0CDD1C9A9559
:1029D000E2F790E08C219D21892B09F420E02887E3
:1029E0000E94AB218160782F9A8789874E815F8111
:1029F00068858A850E947015F801EB58FD4F80812B
:102A0000C826C08206C02F5F3F4F2630310569F6C9
:102A1000AACF0E94BC23109174020E943814181788
:102A2000A1F00E943814809374022B960FB6F8948C
:102A3000DEBF0FBECDBFDF91CF911F910F91FF90F1
:102A4000EF90DF90CF900C94550A2B960FB6F89428
:102A5000DEBF0FBECDBFDF91CF911F910F91FF90D1
:102A6000EF90DF90CF900895DC0111962C91119793
:102A70008C91682F70E041E050E001C0440F8A95CE
:102A8000EAF712968C91129730E0882329F0809112
:102A900092028823E9F006C0F901ED57FD4F9081BD
:102AA0009423B1F086E0829FF001839FF00D112402
:102AB000E60FF71FEE0FFF1FEB5EFE4F8081918147
:102AC0008D939C93F901ED57FD4F8081482B06C0F3
:102AD000F901ED57FD4F40958081482340830895CB
:102AE000CF93DF93CDB7DEB72B970FB6F894DEBF49
:102AF0000FBECDBF942F4F83252F588769877A87C4
:102B00008B874A855B85452B21F02F3F09F59F3F39
:102B1000F9F4DE01119686E0FD0111928A95E9F73C
:102B200085E0FE01379601900D928A95E1F7498183
:102B30005A816B817C818D819E810E94981C2B968D
:102B40000FB6F894DEBF0FBECDBFDF91CF910895D1
:102B5000CE0107960E943415DCCFCF93DF931F92EE
:102B6000CDB7DEB7882309F4E8C0682F823879F43E
:102B70000E94381481FDE1C069E3809103019091C6
:102B800004010E9414210E94BF1F69E310C0833812
:102B9000C9F40E94381480FDD0C063E58091030120
:102BA000909104010E9414210E94BF1F63E580914F
:102BB0000301909104010E941F210F90DF91CF919A
:102BC0000C94BF1F843879F40E94381482FDB5C07C
:102BD00067E480910301909104010E9414210E94F6
:102BE000BF1F67E4E4CF8CEF860F813A70F4862F25
:102BF00069830E94E525698181119FC0809103014D
:102C0000909104010E941421D8CF80E2860F883071
:102C100048F4677081E001C0880F6A95EAF70E9466
:102C2000F51FCBCF8BE5860F833088F4653A29F00A
:102C3000663A31F083E890E005C081E890E002C098
:102C400082E890E00F90DF91CF910C945A1488E5C0
:102C5000860F853108F071C0683A61F1693A69F10F
:102C60006A3A71F16B3A79F16C3A81F16B3B89F117
:102C70006C3B91F16D3A99F1603BA1F16E3AA9F18B
:102C80006F3AB1F1613BB9F1623BC1F1633BC9F10C
:102C9000643BD1F1653BD9F1663BE1F1673BE9F17A
:102CA000683BF1F1693BF9F16A3B09F43FC080E010
:102CB00090E03EC082EE90E03BC089EE90E038C0EC
:102CC0008AEE90E035C085EB90E032C086EB90E074
:102CD0002FC083EB90E02CC084EB90E029C087EB01
:102CE00090E026C08CEC90E023C08DEC90E020C0FA
:102CF00083E891E01DC08AE891E01AC082E991E082
:102D000017C084E991E014C081E292E011C083E22F
:102D100092E00EC084E292E00BC085E292E008C02F
:102D200086E292E005C087E292E002C08AE292E089
:102D30000F90DF91CF910C9470140F90DF91CF9191
:102D40000895882309F45BC0682F823879F40E94C3
:102D5000381481FF54C069E380910301909104010C
:102D60000E9414210E94BF1F69E310C08338B1F490
:102D70000E94381480FF43C063E580910301909165
:102D800004010E9414210E94BF1F63E5809103018A
:102D9000909104010E941F210C94BF1F843879F484
:102DA0000E94381482FF2BC067E480910301909148
:102DB00004010E9414210E94BF1F67E4E7CF8CEF3B
:102DC000860F813A18F380E2860F883048F46770E6
:102DD00081E001C0880F6A95EAF70E94FB1FDCCFF3
:102DE0008BE5860F833020F480E090E00C945A1439
:102DF000685A653120F480E090E00C9470140895D6
:102E0000882321F00E94F51F0C94BF1F089588238A
:102E100021F00E94FB1F0C94BF1F08958F929F9278
:102E2000AF92BF92CF92DF92EF92FF920F931F93D8
:102E3000CF93DF931F92CDB7DEB77C01C72EFC0185
:102E4000058102950F701281112321F069830E9480
:102E50001220698169830E94B81F6981882381F0EB
:102E6000112371F080E2860F883050F082E00E94DA
:102E7000A11F0E94B81F91E0D82ED926698101C0F8
:102E8000D12CAC2CA2948FE0A822B12CF501E859EA
:102E9000FF4F0C94D22D8C2D807F0C2D0F7088232A
:102EA00011F00295007F1123C1F0002309F4D2C173
:102EB00080E2860F883010F0611105C0802F698391
:102EC0000E94F51F04C0802F69830E94052069813C
:102ED00069830E94BF1F6981BDC1862F69830E94DB
:102EE000A1166981002309F40EC280E2860F8830A2
:102EF00010F0611104C0802F0E94FB1F03C0802FBF
:102F00000E940B200E94BF1FFEC19C2D907F8C2D24
:102F10008F70903211F08295807F662319F06130B6
:102F2000B1F01EC0112349F0002309F44BC1013058
:102F300009F048C10E942520E6C1002319F00130A4
:102F400009F4E1C189830E942820898141C11123AC
:102F500021F0023008F0D7C135C10111D4C138C108
:102F6000112321F0002309F42DC174C1002309F4B9
:102F70002FC181C18C2D86958695837090E0009736
:102F800019F0019761F0BFC1112321F0862F9C2D0C
:102F9000937002C080E090E00E945A14C4C11123D3
:102FA00021F0862F9C2D937002C080E090E00E945B
:102FB0007014B9C11123F9F0653F51F0663F71F00B
:102FC000643FA9F48091A5039091A60381600BC092
:102FD0008091A5039091A603826005C08091A5030E
:102FE0009091A60384609093A6038093A503862FF7
:102FF0000E94C4221EC0653F51F0663F71F0643FDD
:10300000A9F48091A5039091A6038E7F0BC08091B7
:10301000A5039091A6038D7F05C08091A503909193
:10302000A6038B7F9093A6038093A503862F0E940F
:103030002C230E94B12377C18C2D837009F052C0DC
:1030400011116DC1862F829586958770880F880F24
:10305000962F9F70892E912CA12CB12C082E04C084
:10306000880C991CAA1CBB1C0A94D2F764FF14C0DC
:103070000FE010E020E030E0B901A80104C0440FE7
:10308000551F661F771F8A95D2F7CB01BA0160954D
:1030900070958095909503C060E070E0CB012C2D79
:1030A00026952695237030E02230310569F02330D3
:1030B000310589F0682979298A299B292130310530
:1030C00071F00E94DB1D2BC1682979298A299B296F
:1030D0000E94ED1D24C10E94DB1DC501B4010E94A8
:1030E000C91D1DC1112319F08C2D817001C0869559
:1030F000882309F414C1862F829586958770880FDE
:10310000880F962F9F70892E912CA12CB12C082E00
:1031100004C0880C991CAA1CBB1C0A94D2F764FF3B
:1031200014C00FE010E020E030E0B901A80104C0B5
:10313000440F551F661F771F8A95D2F7CB01BA013E
:10314000609570958095909503C060E070E0CB012C
:103150002C2D269526952370422F50E042305105A4
:1031600069F04330510589F0682979298A299B291A
:103170004130510571F00E949F1ED1C06829792904
:103180008A299B290E94B11ECAC00E949F1EC501A8
:10319000B4010E948D1EC3C0862F90E0FC01E05E4A
:1031A000F109E531F10508F051C0E858FF4F0C94E2
:1031B000D22D062F0F708C2D8F71112331F00E94AC
:1031C000261E802F0E9400179EC00E94471E802F3F
:1031D0000E94071798C0112339F0011194C08C2D5B
:1031E0008F710E946C1E8FC0023008F08CC0F7CF28
:1031F000112339F08C2D8F710E94261E84C011235B
:10320000C9F38C2D8F710E94471E7DC0112329F0B8
:103210008C2D8F710E94111E76C00E940C1E73C0EF
:10322000112351F01C2D1F71812F0E94261E63E077
:10323000812F0E94981F67C081E00E94A11F023069
:1032400008F461C082E00E94A11F5DC0112331F02B
:10325000002381F2862F0E94AD1555C0002389F20C
:10326000693349F45FEF77EE83E05150704080405E
:10327000E1F700C00000862F0E94A11644C04C2D2B
:103280004F70C7010E940E070E943C1D4CC0623F58
:1032900099F128F4603F49F0613FE1F020C0643FBC
:1032A000A1F050F0653F59F01AC0112339F1909107
:1032B000920281E0892706C081E018271DC0111104
:1032C0001DC081E08093920219C0111117C01092A5
:1032D000920214C0002381F0111110C0E8CF002326
:1032E00059F0862F6983112319F00E94AD1502C091
:1032F0000E94A116698102C0109392024C2D4F705A
:10330000C7010E94570A98E0A916B10441F05CF089
:10331000FAE0AF1AB10822E0A216B10420F40E942C
:1033200038140E94550ADD20F1F00E94941F80FDA0
:103330001AC0F70112820E948E1F0E94261EC7012A
:103340000E94C1190E948E1F0F90DF91CF911F9193
:103350000F91FF90EF90DF90CF90BF90AF909F9034
:103360008F900C94471E0F90DF91CF911F910F917A
:10337000FF90EF90DF90CF90BF90AF909F908F9095
:1033800008950F931F93CF93DF93EC018881998168
:103390002B813C81232BB9F09F3F11F48F3F99F093
:1033A000CE010E947707882371F0688179818A8134
:1033B0000E946B1F8C010E94C31E0E94C61DB80193
:1033C000CE010E940E17DF91CF911F910F910895AA
:1033D0000E9412200E9422208091030190910401FA
:1033E0000E942A210E94BF1F0E944A240E94B123EA
:1033F00080E090E00E945A1480E090E00C947014F9
:103400000E9402200C94E8190E94601FE92FE295A7
:10341000EF70F0E03297EE30F105B0F4E357FF4F74
:103420000C94D22D803F91F018F4803E68F40EC0C9
:10343000843F51F40BC0803E48F0813F29F406C020
:1034400093FB882780F9089580E0089581E008952E
:10345000CF93DF9300D000D01F92CDB7DEB70F908F
:103460000F900F900F900F90DF91CF910895CF9311
:10347000DF9300D000D000D0CDB7DEB726960FB6D0
:10348000F894DEBF0FBECDBFDF91CF9108951F939B
:10349000CF93DF93C091930216E080919402C817F6
:1034A00099F0D0E01C9FF0011D9FF00D1124EB5608
:1034B000FD4F4081518162817381848195810E9499
:1034C000371A2196C770E9CFDF91CF911F910895E8
:1034D0004091C5025091C6026091C7027091C80226
:1034E0008091C9029091CA020C94371A8091CA0245
:1034F00082958F7009F054C08091C702882309F427
:103500004FC080919302A09194026091C502709186
:10351000C6024091C8025091C902B6E08A1709F468
:103520003FC090E041155105C1F17F3F11F46F3F5D
:10353000A1F1B89FF001B99FF00D1124EB56FD4F9A
:10354000218172132AC02081621327C02281211198
:1035500024C0238134812417350710F42150310908
:10356000241B350B283C3105C0F42091CA022F7072
:1035700020612093CA0226E0289FF001299FF00DC8
:103580001124E656FD4F80818F708061808385EC29
:1035900092E00E94C1190C94471A01968770BECF21
:1035A0000895CF92DF92EF92FF920F931F93CF93E4
:1035B000DF93CDB7DEB762970FB6F894DEBF0FBECC
:1035C000CDBF8C0185E0F801DE011D9601900D92C2
:1035D0008A95E1F7D8014C9111965C91119712965A
:1035E0006C9112971396CD90DC9014973091C50290
:1035F0007091C6028091C8029091C902009709F4A7
:103600006BC17F3F19F43F3F09F466C1E090C702E8
:10361000EE2009F4C0C02091CA02C816D90628F0CD
:10362000F601E81BF90BCF0104C0809590958C0D35
:103630009D1DFF24F394883C910578F0F12C207FA8
:1036400009F0C6C07C2DD98AC88A89890E94281AA7
:1036500085EC92E00E94C119B1C0822F807F09F0F1
:1036600046C0751314C0341312C0611110C02F70FE
:1036700020612093CA020E94681A85EC92E00E94A1
:10368000C1198091CA02D80115968C932EC0CD28FD
:1036900019F15F3F11F44F3FF9F0F62E61111CC094
:1036A000809193022091940236E0821709F45AC067
:1036B00090E0389FF001399FF00D1124EB56FD4F3B
:1036C0007181571306C07081471303C07281711155
:1036D00003C001968770E9CFF62E662309F418C15E
:1036E0008091CA0281608093CA02F12C11C17513C6
:1036F00008C0341306C0611104C08091CA02D80109
:10370000C3C04D875E878D859E856A8B0E94041A93
:103710006A898823E1F16623D1F12091CA02822FC0
:1037200082958F7090E0029774F08091C50290911D
:10373000C60298878F831986DB86CA862C87CE01BE
:1037400007960E94C11986E0F801A5ECB2E001904D
:103750000D928A95E1F70E94761A0E94681AFF245A
:10376000F394D6C04D875E878D859E850E94601F2D
:10377000292F22952F7030E0223031050CF0BCC08B
:103780009F7009F0B6C0805E883008F4C1C0C801DF
:103790000E94C119E4CFC816D90608F453C0F60137
:1037A000E81BF90BCF01883C910508F450C0F12CBF
:1037B0007C2DD98AC88A89890E94281AE5ECF2E012
:1037C00086E0DF011D928A95E9F70E94681AA0C081
:1037D000751314C0341312C0611110C08091CA0255
:1037E000F8018583C8010E94C11986E0E5ECF2E08A
:1037F000DF011D928A95E9F7FE2C8AC04D875E870E
:103800008D859E856A8B0E94041A6A89882309F433
:10381000BECF662309F4BBCF2091CA02822F8295C6
:103820008F7090E002970CF48ECF8091C50290913A
:10383000C6029A8389831B82DD82CC822E83CE01CD
:1038400001967FCF809590958C0D9D1DACCFF62E67
:10385000662309F49CCF75132EC034132CC020911D
:10386000CA0220FD1FC0822F82958F70D9F0D80127
:1038700015962C9315978F3049F08F5F982F92955E
:10388000907F822F8F70892B15968C93C8010E9490
:10389000C11986E0F801A5ECB2E001900D928A957D
:1038A000E1F793CF86E0F801A5ECB2E001900D922C
:1038B0008A95E1F72DC04D875E878D859E850E9494
:1038C000041A811140CF8091CA0281608093CA029C
:1038D000C8010E94C1191CC0662309F458CF4D8746
:1038E0005E878D859E850E94041A882309F44FCF38
:1038F0002ACF811148CF0CC0243031050CF047CFBE
:103900009F7009F440CFF8019581907F09F03BCF7B
:103910008F2D62960FB6F894DEBF0FBECDBFDF913C
:10392000CF911F910F91FF90EF90DF90CF9008956E
:103930001F93CF93DF93CDB7DEB72C970FB6F894D4
:10394000DEBF0FBECDBF4F83588769877A878B87CD
:103950009C87CE0107960E94D11A882369F08F8137
:1039600098852A853B85232BF1F19F3F09F063C0A1
:103970008F3F09F060C037C086E0FE013796DE0158
:10398000119601900D928A95E1F76F817885EA850D
:10399000FB85309741F17F3F11F46F3F21F120917A
:1039A000940230E0C90101968770992740919302F3
:1039B00050E08417950709F447C069837A83FD8333
:1039C000EC8396E0929FD001939FB00D1124AB56EB
:1039D000BD4FFE01319601900D929A95E1F78093CB
:1039E00094020E94471A16E08091930290919402EB
:1039F0008917C1F1189FC00111248B569D4F0E9459
:103A0000D11A882379F1E09193021E9FF0011124CD
:103A1000EB56FD4F40815181628173818481958194
:103A20000E94371A8091930290E00196877099273F
:103A300080939302D9CF4F81588569857A858B858C
:103A40009C850E94371ACFCF0E94001A10929402D0
:103A500010929302E5ECF2E086E0DF011D928A9578
:103A6000E9F7C1CF2C960FB6F894DEBF0FBECDBFDD
:103A7000DF91CF911F910895EF92FF920F931F93C3
:103A8000CF93DF938C01892B09F46CC0F12CEE24C9
:103A9000E394E8012196F8018491843740F484305E
:103AA00008F051C0813081F0823019F15BC0853758
:103AB00009F444C0A8F19CE7980F903708F052C071
:103AC0008F770E94A11641C00E5F1F4FFE01C49167
:103AD00080E28C0F883048F4C7708E2D01C0880FAB
:103AE000CA95EAF70E94152014C08C2F0E94AD15CC
:103AF0002DC00E5F1F4FFE01C49180E28C0F8830F5
:103B000058F4C7708E2D01C0880FCA95EAF70E943D
:103B10001B200E94BF1F1AC08C2F0E94A11616C026
:103B20000E5F1F4FFE01C491CC2381F08FE99FE00F
:103B30000197F1F700C00000C150F6CF0E5F1F4F94
:103B4000FE01F49003C00E94AD158E018F2D8823D5
:103B500009F49FCFEFE9FFE03197F1F700C00000D3
:103B60008150F5CFDF91CF911F910F91FF90EF9092
:103B7000089508950E94B91D60930603709307038A
:103B800080930803909309030C94E81908950C940A
:103B9000BA1D0F931F930091060310910703209104
:103BA000080330910903602B712B822B932B1F91FB
:103BB0000F910C94BA1D0F931F930091060310915F
:103BC00007032091080330910903602371238223A6
:103BD00093231F910F910C94BA1D0F931F93009183
:103BE0000603109107032091080330910903602711
:103BF0007127822793271F910F910C94BA1D089566
:103C00000E94FF1D609302037093030380930403DB
:103C1000909305030C94E81960E070E0CB010C94DC
:103C2000001E0F931F9341E050E060E070E08A01B6
:103C30009B0104C0000F111F221F331F8A95D2F76A
:103C4000C901B8011F910F910C94001E0F931F938F
:103C500041E050E060E070E004C0440F551F661F73
:103C6000771F8A95D2F78091020390910303A09168
:103C70000403B09105038A019B01082B192B2A2B01
:103C80003B2BC901B8011F910F910C94001E0F939B
:103C90001F9341E050E060E070E004C0440F551F06
:103CA000661F771F8A95D2F740955095609570955D
:103CB0008091020390910303A0910403B091050346
:103CC0008A019B01082319232A233B23C901B80138
:103CD0001F910F910C94001E0F931F9341E050E031
:103CE00060E070E004C0440F551F661F771F8A957F
:103CF000D2F78091020390910303A0910403B09145
:103D000005038A019B01082719272A273B27C90198
:103D1000B8011F910F910C94001E0F931F930091F7
:103D20000203109103032091040330910503602BDB
:103D3000712B822B932B1F910F910C94001E0F93CC
:103D40001F9300910203109103032091040330910B
:103D5000050360237123822393231F910F910C94F9
:103D6000001E0F931F9300910203109103032091F3
:103D700004033091050360277127822793271F9141
:103D80000F910C94001E0895292F220F920F990F66
:103D9000890FA82FA695A695A695877051E001C01A
:103DA000550F8A95EAF785E0A89FD001112420E0FD
:103DB00030E070E0F901EA0FFB1FE553FD4F408151
:103DC000CB01022E02C0969587950A94E2F7817086
:103DD0009927819584278523842780832F5F3F4FF0
:103DE0002530310539F70895292F220F920F990FA9
:103DF000890F682F669566956695982F977085E070
:103E0000689FB001112440E050E080E0FA01E60F25
:103E1000F71FE553FD4F208130E0092E02C0369593
:103E200027950A94E2F721703327042E01C0220F50
:103E30000A94EAF7822B4F5F5F4F4530510531F707
:103E40000895CF92DF92EF92FF920F931F93CF933B
:103E5000DF938C01C0900603D0900703E090080325
:103E6000F09009038091020390910303A091040351
:103E7000B0910503C82AD92AEA2AFB2ACFE1D0E06B
:103E8000D701C6010C2E04C0B695A79597958795C6
:103E90000A94D2F780FF06C0B8018C2F0E94720AE4
:103EA000019721F4219760F780E001C08C2FDF910A
:103EB000CF911F910F91FF90EF90DF90CF900895D9
:103EC000CF93DF93EC010E94211FBE010E94720A72
:103ED000DF91CF9108951F93CF93DF93EB019091E2
:103EE0009102992321F0CB010E94601F13C0882307
:103EF00049F0CB010E94211F182F682FCE010E948C
:103F0000C41E04C0CB010E94F41E182FBE01812FD5
:103F10000E94720ADF91CF911F91089580910A0348
:103F2000859585958595089580910A0387700895F4
:103F300098E0899F90011124262B20930A030C946A
:103F4000261E20910A038095822380930A03982FCE
:103F5000977069F430E0482F082E000C550B241799
:103F6000350729F08595859585950C94471E08950C
:103F700090910A03977081E009F480E00895E09140
:103F80000301F091040180912E038083E0910301ED
:103F9000F0910401908180912D03892B8083E09121
:103FA0000301F0910401908180912C03892B80837F
:103FB00080910B03882381F0E0910301F0910401CB
:103FC0009081892B808380910301909104010E944C
:103FD000B820811110920B0380910301909104018C
:103FE0000C94441480912E03089590912E03892BF4
:103FF00080932E030895809590912E0389238093BA
:104000002E03089510922E03089590912D03892B6D
:1040100080932D030895809590912D03892380939B
:104020002D03089510922D03089590912C03892B50
:1040300080932C030895809590912C03892380937D
:104040002C03089510922C03089580930B03089578
:1040500010920B030895CF92DF92EF92FF926C01C2
:10406000EE24FF24C114D104E104F10421F0C701BE
:10407000B60120E101C020E0C72ED82EE92EFF2492
:10408000C114D104E104F10419F0285FC701B6019D
:104090006B017C0154E0F694E794D794C7945A9549
:1040A000D1F7C114D104E104F10419F02C5FC70168
:1040B000B6016B017C0142E0F694E794D794C79473
:1040C0004A95D1F7C114D104E104F10419F02E5F2F
:1040D000C701B601DC01CB01B695A79597958795E9
:1040E000892B8A2B8B2B09F02F5F822FFF90EF906B
:1040F000DF90CF9008956DEE7EEF80E090E00E941B
:104100000A2E60E082E090E00E94EC2D60E083E007
:1041100090E00E94EC2D60E084E090E00E94EC2DA5
:1041200060E085E090E00E94EC2D40E050E0BA01B4
:1041300088E090E00C94FE2D80E090E00E94E62D57
:1041400021E08D3E9E4F09F020E0822F089582E00D
:1041500090E00C94D82D83E090E00C94D82D84E06E
:1041600090E00C94D82D682F84E090E00C94EC2D16
:10417000FC0131969C01205E3F4F80E091919111AE
:104180008F5FE217F307D1F708959C01FC01329687
:104190009FEF80E04191461789F09F3F19F441114C
:1041A00001C0982F8F5F8E31A9F79F3F39F0F90139
:1041B000E90FF11D97FDFA95628308950895FC01BA
:1041C000329680962081261301C010823196E8171E
:1041D000F907C1F70895262F2695269526952F31A4
:1041E00068F4FC01E20FF11D677021E030E001C0CE
:1041F000220F6A95EAF78181282B21830895262FC3
:104200002695269526952F3170F4FC01E20FF11DBD
:10421000677021E030E001C0220F6A95EAF720952F
:10422000818128232183089520911401222329F0DC
:104230002091AB0327FD0C94EB200C94C52020911A
:104240001401222329F02091AB0327FD0C94FF20B9
:104250000C94DF20FC01319680961192E817F90743
:10426000E1F708958091B103843039F11092300361
:1042700020E488E190E00FB6F894A8958093600060
:104280000FBE2093600080E00E94550A83B7817FB3
:10429000846083BF83B7816083BF7894889583B738
:1042A0008E7F83BF0FB6F894A895809160008861D7
:1042B00080936000109260000FBE08950895CF9320
:1042C0000E941B050E9468050E945E21C0E08C2FA1
:1042D0000E944A06811104C0CF5FCE30C1F701C0F1
:1042E00081E0CF9108950E94001A0E9438140C9426
:1042F000550A1F920F920FB60F9211248F939F931E
:10430000AF93BF9380913003811113C08091A703B5
:104310009091A803A091A903B091AA034196A11D71
:10432000B11D8093A7039093A803A093A903B09312
:10433000AA03BF91AF919F918F910F900FBE0F90E5
:104340001F90189582E084BD93E095BD9AEF97BDCC
:1043500080936E0008952FB7F8948091A7039091F1
:10436000A803A091A903B091AA032FBF0895CF92EB
:10437000DF92EF92FF920F931F932FB7F894409123
:10438000A7035091A8036091A9037091AA032FBFBE
:104390006A017B01EE24FF248C0120E030E0C0168E
:1043A000D106E206F30610F4415051099A01281B88
:1043B000390BC9011F910F91FF90EF90DF90CF90C3
:1043C000089578941F920F920FB60F9211248F9335
:1043D0009F93AF93BF938091A7039091A803A0915F
:1043E000A903B091AA030196A11DB11D8093A70353
:1043F0009093A803A093A903B093AA03BF91AF9190
:104400009F918F910F900FBE0F901F9018950E9453
:10441000A32AF8942FEF87EA91E62150804090403C
:10442000E1F700C0000087E090EBDC018093BA0365
:104430009093BB03A093BC03B093BD039CE088E1C1
:104440000FB6F894A895809360000FBE909360001B
:10445000FFCF0E949C20811102C00E947B200E94FD
:10446000A72080932F030E94AF2090E09093AC038D
:104470008093AB030E94AB20682F70E080E090E057
:104480000C94C71D8091340380FF0BC0609108011C
:1044900085E0689FB00111247595679575956795BE
:1044A0002BC081FF09C06091080185E0689FB001C1
:1044B00011247595679520C082FF07C0609108019F
:1044C00085E0689FB001112417C0909135039923AE
:1044D000D1F060910701961788F72091080185E0D7
:1044E000289F90011124929FA001939F500D1124A9
:1044F00070E0CA010E94BE2D6038710540F461155C
:10450000710539F002C065E070E0862F08958FE7ED
:10451000089581E008958091340380FF08C0609180
:10452000060170E0759567957595679521C081FFC7
:1045300006C06091060170E07595679519C082FF0D
:1045400004C06091060170E010C09091350399237A
:10455000C1F0609105019617A0F780910601899F2F
:10456000C001112470E00E94BE2D6038710528F44E
:104570006115710521F0862F08958FE7089581E078
:10458000089561E070E0F4CF803F21F40E94422260
:10459000819504C0813F29F40E9442228093380310
:1045A0000895823F21F40E944222819504C0833FF6
:1045B00029F40E944222809337030895893F19F419
:1045C0000E948B2205C08A3F31F40E948B22819584
:1045D0008093390308958B3F21F40E948B228195AB
:1045E00004C08C3F29F40E948B2280933A030895E3
:1045F000843F21F480913603816017C0853F21F408
:1046000080913603826011C0863F21F48091360389
:1046100084600BC0873F21F480913603886005C019
:10462000883F31F48091360380618093360308958A
:104630008D3F21F48091340381600BC08E3F21F4C3
:1046400080913403826005C08F3F29F48091340348
:104650008460809334030895803F39F48091380357
:1046600087FF6CC01092380369C0813F29F48091A4
:1046700038031816BCF362C090913703823F29F4C7
:1046800097FF5CC01092370359C0833F19F4191685
:10469000CCF354C0893F41F48091390318160CF0D3
:1046A0004DC0109239034AC08A3F29F480913903E2
:1046B00087FF44C0F6CF8B3F39F480913A0387FFE0
:1046C0003DC010923A033AC08C3F29F480913A03DE
:1046D0001816BCF333C0843F21F4809136038E7FDB
:1046E00017C0853F21F4809136038D7F11C0863F2E
:1046F00021F4809136038B7F0BC0873F21F480919A
:104700003603877F05C0883F31F4809136038F7E62
:104710008093360313C08D3F21F4809134038E7F44
:104720000BC08E3F21F4809134038D7F05C08F3FF5
:1047300029F4809134038B7F809334038091370375
:1047400081110EC08091380381110AC08091390314
:10475000811106C080913A03811102C01092350385
:10476000089586E393E00E944F140E94AB2190933A
:1047700032038093310308951F93CF93DF93809189
:104780003103909132030E94B721AC01909135031F
:10479000992321F02091090130E006C020913303D4
:1047A0008AE0289F900111244217530708F46EC035
:1047B00080913703C0913803D091390310913A03A7
:1047C000811107C0C1115EC0D1115CC011115AC066
:1047D0005DC09F3F19F09F5F90933503181624F436
:1047E0000E944222809337038091370387FF05C0E0
:1047F0000E9442228195809337031C1624F40E9464
:104800004222809338038091380387FF05C00E94BD
:10481000422281958093380340913703442379F0F5
:1048200030913803332359F025EB4203A0011124C2
:10483000509337033203C0011124909338031D169F
:1048400024F40E948B22809339038091390387FFDF
:1048500005C00E948B22819580933903111624F4A0
:104860000E948B2280933A0380913A0387FF05C010
:104870000E948B22819580933A03DF91CF911F9103
:104880000C94B1239F3F09F0A6CFAECFDF91CF911B
:104890001F910895E6E3F3E085E0DF011D928A951C
:1048A000E9F710923503109234030895833081F1B3
:1048B00028F4813059F08230D1F00895853009F420
:1048C00049C0B8F1863009F456C008958091330389
:1048D000262F30E0280F311D2F3F310524F4680FBB
:1048E0006093330308958FEF80933303089580918D
:1048F0000901262F30E0280F311D2F3F310524F408
:10490000680F6093090108958FEF8093090108955E
:1049100080910801262F30E0280F311D2F3F3105EF
:1049200024F4680F6093080108958FEF80930801C5
:10493000089580910701262F30E0280F311D2F3F69
:10494000310524F4680F6093070108958FEF809379
:104950000701089580910601262F30E0280F311DB0
:104960002F3F310524F4680F6093060108958FEFFF
:1049700080930601089580910501262F30E0280FCD
:10498000311D2F3F310524F4680F60930501089510
:104990008FEF809305010895833011F128F4813061
:1049A00049F0823091F00895853081F120F1863010
:1049B000C1F1089580913303681720F4861B80931A
:1049C0003303089510923303089580910901681705
:1049D00020F4861B8093090108951092090108951F
:1049E00080910801681720F4861B809308010895C0
:1049F00010920801089580910701681720F4861B22
:104A0000809307010895109207010895809106018F
:104A1000681720F4861B8093060108951092060102
:104A2000089580910501681720F4861B8093050185
:104A300008951092050108950F931F93873208F08F
:104A40004DC08E3108F093C0803109F47DC008F567
:104A5000873009F46BC068F4863009F0A3C08091F8
:104A60002F03817F8E7F80932F0381E080933C030F
:104A70009AC08B3009F48FC08E3009F093C08091BA
:104A80002F0382FB222720F991E0922790FB82F9E5
:104A900064C0863109F47FC088F4813109F082C096
:104AA0000E94001A8091AB0387FB222720F991E036
:104AB000922790FB87F98093AB036DC0893109F48D
:104AC0006AC08B3109F06EC080912F0381FB2227D1
:104AD00020F991E0922790FB81F93FC0883309F4D7
:104AE0005AC050F4893209F458C0853309F455C0CE
:104AF000873209F452C056C0833409F44EC028F4FA
:104B00008A3308F44FC0895333C0883409F04AC04F
:104B10000E94001A0FEF13ED20E3015010402040D7
:104B2000E1F700C000000E94072235C080912F03EA
:104B3000982F9095917090FB80F980932F0391119D
:104B40002AC0897F877F10C080912F0383FB222793
:104B500020F991E0922790FB83F980932F0399230A
:104B6000D1F080912F03816080932F0314C08D5169
:104B700041E050E060E070E08A019B0104C0000F5A
:104B8000111F221F331F8A95D2F7C901B8010E9455
:104B9000C71D0E94001A81E006C061E070E080E05D
:104BA00090E0F5CF80E01F910F91089580E0089587
:104BB00080E008958E518A3030F4E82FF0E0E3541D
:104BC000FE4F8081089580E00895CF93C82F809193
:104BD0003C03813079F018F08230E9F185C0E09132
:104BE0000301F09104018081813169F0823209F082
:104BF0007DC009C0E0910301F09104018081813101
:104C000011F0823261F48C2F0E94D625811104C0EC
:104C10008C2F0E941C251DC081E090E01AC08C2FB3
:104C20000E94D825811114C0C43179F048F4CB30EA
:104C300079F0C03109F05EC082E080933C0308C087
:104C4000C93219F0C83321F055C010923C0352C04C
:104C500081E0817051C0C93279F108F5C43161F148
:104C6000A0F4C73009F044C01092330384E180936C
:104C70000901C09308018CE38093070188E08093C9
:104C8000060188E28093050133C082EE8C0F8630E6
:104C900078F58C2F0E94DA2580933B0329C0CE340F
:104CA000E9F020F4CB3421F56AE013C0C13579F086
:104CB000C235F1F461E00DC080913B03882319F007
:104CC00010923B0315C081E080933C0315C061E066
:104CD00006C080913B030E9456240AC06AE080917E
:104CE0003B030E94CC2404C010923C0380E004C02B
:104CF00081E002C080E0ADCFCF91089580915D0347
:104D000008950F931F93CF93DF9300D01F92CDB7D9
:104D1000DEB78C010E94F128823011F0843019F541
:104D200093E099831B830A839093E9008FEF90911E
:104D3000E800815095FD06C095ED9A95F1F70000C9
:104D40008111F5CF8091E80085FF0DC040E050E073
:104D500063E070E0CE0101960E940E298091E80088
:104D60008E778093E8000F900F900F90DF91CF9196
:104D70001F910F910895CF93DF9300D01F92CDB76D
:104D8000DEB72091B103243031F522E02983805829
:104D900091099B838A8383E08093E9008FEF909150
:104DA000E800815095FD06C095ED9A95F1F7000059
:104DB0008111F5CF8091E80085FF0DC040E050E003
:104DC00063E070E0CE0101960E940E298091E80018
:104DD0008E778093E8000F900F900F90DF91CF9126
:104DE0000895CF93DF93EC010E94F128823011F0F7
:104DF0008430F9F482E08093E9009FEF8091E8002D
:104E0000915085FD06C085ED8A95F1F7000091115E
:104E1000F5CF8091E80085FF0CC040E050E065E0F0
:104E200070E0CE010E940E298091E8008E77809379
:104E3000E800DF91CF910895CF93DF93EC010E94BA
:104E4000F128823019F0843009F047C080911401B4
:104E50008823E1F08091AB0387FF18C084E0809342
:104E6000E9008FEF9091E800815095FD06C095E133
:104E70009A95F1F700008111F5CF8091E80085FF48
:104E80002CC040E050E060E270E017C081E0809309
:104E9000E9008FEF9091E800815095FD06C095EDF7
:104EA0009A95F1F700008111F5CF8091E80085FF18
:104EB00014C040E050E068E070E0CE010E940E298E
:104EC0008091E8008E778093E80080E2FE01ADE3F8
:104ED000B3E001900D928A95E1F7DF91CF910895AB
:104EE0008091B003811109C00E94A32A0E94002B67
:104EF0008091E20084608093E20008951092B003F4
:104F00000895089508950C94732142E061EC81E0C6
:104F10000E941D2A42E061EC82E00E941D2A42E0CC
:104F200061EC83E00E941D2A42E261EC84E00C9473
:104F30001D2A8091B303833009F455C030F48130C9
:104F400071F0823009F48EC008958A3009F47AC075
:104F50008B3009F460C0893009F09CC020C080917A
:104F6000B203813A09F096C08091E800877F809370
:104F7000E8008091B6039091B703892B21F460E299
:104F80008DE393E003C060E080E090E070E00E9479
:104F900059298091E8008B778093E80008958091EB
:104FA000B203813209F076C08091B6039091B703C5
:104FB000009719F0039709F06DC08091E800877F92
:104FC0008093E8008091E80082FD05C08091B103E4
:104FD0008111F8CF5FC08091F10080935D038091D3
:104FE000E8008B7753C08091B203813A09F052C038
:104FF0008091B6039091B703892B09F04BC0809143
:10500000E800877F8093E8008091E80080FFFCCF74
:105010008091140136C08091B2038132D9F580911C
:10502000B6039091B703892BA9F58091E800877F9B
:105030008093E8000E94522A8091B4038093140167
:105040000C94001A8091B203813221F58091E8001E
:10505000877F8093E8000E94522A8091B503809355
:105060005E0308958091B203813AA1F48091E80033
:10507000877F8093E8008091E80080FFFCCF8091DB
:105080005E038093F1008091E8008E778093E800C2
:105090000C94522A089584B7877F84BF0FB6F89482
:1050A000A8958091600088618093600010926000F4
:1050B0000FBE80E880936100109261000E94871407
:1050C0000E94A32A0E94002B8091E20084608093BA
:1050D000E20078940E948F2D0E9489148AE091E06A
:1050E0000E9433148091B103853069F40E9432210B
:1050F0008091AF038823B1F30E945F21882391F34D
:105100000E94F828EFCF0E9491140E94FC13EACF6E
:10511000292F332723303105C9F064F421303105BC
:1051200081F02230310509F043C08DE690E023EF95
:1051300036E042C021323105F1F02232310541F131
:1051400037C082E190E020E637E036C09927813011
:10515000910541F08230910541F0892B49F5EFEE40
:10516000F6E005C0E7EDF6E002C0EFEBF6E0849173
:1051700090E09F0121C064307105D0F4660F771F65
:10518000FB01ED52FE4F2081318189E090E014C097
:105190006430710568F4FB01EE0FFF1FE553FE4F0D
:1051A00020813181FB01E953FE4F808190E004C0F2
:1051B00080E090E020E030E0FA0131832083089520
:1051C0000895CF93C82F0E94E028C0935F03CF912A
:1051D00008958091B103843011F081E0089582E058
:1051E000089580915F03811102C00C94E92808950D
:1051F00080E189BD82E189BD09B400FEFDCF8091C7
:10520000D8008F7D8093D8008091E00082608093E9
:10521000E0008091E00081FDFCCF0895CF92DF9205
:10522000EF92FF920F931F93CF93DF93EC018B01CB
:105230006A010E94712A811133C0C114D10439F06E
:10524000F60180819181081B190BC80FD91FE12C31
:10525000F12C0115110519F18091E80085FD16C0AA
:105260008091E8008E778093E800C114D10449F062
:10527000F60180819181E80EF91EF182E08285E0DD
:105280000FC00E94712A882321F30AC0899180935C
:10529000F10001501109FFEFEF1AFF0ADACF80E0A9
:1052A000DF91CF911F910F91FF90EF90DF90CF9002
:1052B00008952091B8033091B9032617370748F0B5
:1052C0006115710539F42091E8002E772093E800EC
:1052D00001C0B90140E061157105A9F12091B10348
:1052E000222309F443C0253009F442C02091E8008C
:1052F00023FD40C02091E80022FD32C02091E8004B
:1053000020FFE9CF4091F3002091F20030E0342BF0
:10531000FC01CF016115710559F02830310540F4C9
:1053200081918093F100615071092F5F3F4FF1CF60
:1053300041E02830310509F040E02091E8002E7767
:105340002093E800C8CF4111C9CF0AC08091B103B2
:10535000882361F0853061F08091E80083FD0AC008
:105360008091E80082FFF2CF80E0089582E0089506
:1053700083E0089581E008952091B8033091B90346
:105380002617370748F06115710539F42091E800B8
:105390002E772093E80001C0B901FC0120E06115DF
:1053A000710591F18091B103882309F440C08530E3
:1053B00009F43FC08091E80083FD3DC08091E80082
:1053C00082FD2FC08091E80080FFE9CF2091F3009B
:1053D0008091F20090E0922B6115710559F08830B0
:1053E000910540F424912093F100319661507109A8
:1053F0000196F2CF21E0089709F020E08091E800C3
:105400008E778093E800CBCF2111CCCF0AC080915A
:10541000B103882361F0853061F08091E80083FD5D
:105420000AC08091E80082FFF2CF80E0089582E018
:10543000089583E0089581E00895982F973058F5F6
:105440009093E900981739F07091EC002091ED00ED
:105450005091F00003C0242F762F50E021FF19C097
:105460003091EB003E7F3093EB003091ED003D7FBB
:105470003093ED003091EB0031603093EB0070938E
:10548000EC002093ED005093F0002091EE0027FFF8
:1054900007C09F5FD3CF8F708093E90081E00895AC
:1054A00080E008958091B20387FF11C08091E800E9
:1054B00082FD05C08091B1038111F8CF11C08091A8
:1054C000E8008B770BC08091B103882349F080916D
:1054D000E80080FFF8CF8091E8008E778093E800A5
:1054E00008952091E4003091E50095E64091EC00AC
:1054F000842F817040FF22C08091E80080FD1CC095
:105500008091B103882391F0853091F08091EB0078
:1055100085FD10C04091E4005091E500421753070B
:1055200029F39A01915011F784E0089582E00895DB
:1055300083E0089581E0089580E008954091E800B7
:1055400042FFDECF08950E94112B0E94192BE0EE3E
:10555000F0E0808181608083E8EDF0E080818F77EA
:10556000808319BCA7EDB0E08C918E7F8C938081F5
:105570008F7E80831092B00308950F931F93CF9373
:10558000DF930E94112B0E94192BC8EDD0E0888177
:105590008F77888388818068888388818F7D8883DE
:1055A00019BC1092B1031092AD031092AF03109288
:1055B000AE0300EE10E0F80180818B7F808388814C
:1055C0008160888342E060E080E00E941D2AE1EE75
:1055D000F0E080818E7F8083E2EEF0E08081816068
:1055E0008083808188608083F80180818E7F8083C2
:1055F000888180618883DF91CF911F910F910895F9
:10560000E8EDF0E080818F7E8083E7EDF0E080813F
:105610008160808384E082BF81E08093B0030C943A
:10562000BD2AE8EDF0E080818E7F80831092E20059
:1056300008951092DA001092E10008951F920F92DF
:105640000FB60F9211242F933F934F935F936F9355
:105650007F938F939F93AF93BF93EF93FF9380912B
:10566000E10082FF0BC08091E20082FF07C08091C1
:10567000E1008B7F8093E1000E948E2D8091DA0003
:1056800080FF1FC08091D80080FF1BC08091DA008E
:105690008E7F8093DA008091D90080FF0DC080E179
:1056A00089BD82E189BD09B400FEFDCF81E0809310
:1056B000B1030E94702705C019BC1092B1030E946B
:1056C0007E278091E10080FF19C08091E20080FF79
:1056D00015C08091E2008E7F8093E2008091E2000D
:1056E00080618093E2008091D80080628093D8002E
:1056F00019BC85E08093B1030E9482278091E1006C
:1057000084FF30C08091E20084FF2CC080E189BD1D
:1057100082E189BD09B400FEFDCF8091D8008F7D64
:105720008093D8008091E1008F7E8093E10080918A
:10573000E2008F7E8093E2008091E200816080939E
:10574000E2008091AD03882311F084E007C08091CE
:10575000E30087FD02C081E001C083E08093B103D4
:105760000E9483278091E10083FF29C08091E2009D
:1057700083FF25C08091E100877F8093E10082E074
:105780008093B1031092AD038091E1008E7F8093EE
:10579000E1008091E2008E7F8093E2008091E20040
:1057A00080618093E20042E060E080E00E941D2A78
:1057B0008091F00088608093F0000E948127FF9123
:1057C000EF91BF91AF919F918F917F916F915F9179
:1057D0004F913F912F910F900FBE0F901F901895F2
:1057E0001F920F920FB60F9211242F933F934F9356
:1057F0005F936F937F938F939F93AF93BF93CF9359
:10580000DF93EF93FF93C091E900CF708091EC009C
:10581000D82FD17080FDD0E81092E9008091F0007F
:10582000877F8093F00078940E94342C1092E900D6
:105830008091F00088608093F000CD2BCF70C093F2
:10584000E900FF91EF91DF91CF91BF91AF919F91CF
:105850008F917F916F915F914F913F912F910F9019
:105860000FBE0F901F9018951F93CF93DF93CDB766
:10587000DEB7AA970FB6F894DEBF0FBECDBFE2EB3E
:10588000F3E088E08E0F9091F10091938E13FBCF9F
:105890000E9499278091E80083FF28C18091B2037C
:1058A0009091B303492F50E04A30510508F01EC1D2
:1058B000FA01E556FF4F0C94D22D803821F0823842
:1058C00009F014C108C08091AE039091AF039923F1
:1058D00089F082600FC08091B6038F70873008F026
:1058E00005C18093E9008091EB0085FB882780F952
:1058F0001092E9009091E800977F9093E8008093E0
:10590000F1001092F100D0C0282F2D7F09F0EEC0D9
:10591000882319F0823061F0E9C08091B4038130AE
:1059200009F0E4C0933009F080E08093AF032EC00B
:105930008091B40381112AC08091B6038F702FEF3C
:10594000280F263008F0D2C08093E9002091EB00A8
:1059500020FF1CC0933021F48091EB00806214C0C2
:105960009091EB0090619093EB0021E030E0A90171
:1059700002C0440F551F8A95E2F74093EA00109247
:10598000EA008091EB0088608093EB001092E900C0
:105990008091E800877F8093E8000E94522AA6C089
:1059A0008111A4C01091B4031F778091E300807827
:1059B000812B8093E3008091E800877F8093E8004B
:1059C0000E94522A8091E80080FFFCCF8091E30082
:1059D00080688093E300111102C082E001C083E07F
:1059E0008093B10383C08058823008F07FC08091DB
:1059F000B4039091B5038C3D53E0950779F583E0AE
:105A00008A838AE289834FB7F894DE01139620E0F7
:105A10003EE051E2E32FF0E050935700E49120FF85
:105A200003C0E295EF703F5FEF708E2F90E0EA3099
:105A300010F0C79601C0C0968D939D932F5F2431BF
:105A400049F74FBF8091E800877F8093E8006AE2C2
:105A500070E0CE0101960E94592915C06091B603ED
:105A60007091B703AE014F5F5F4F0E948828BC0161
:105A7000892BE1F19091E800977F9093E80089816C
:105A80009A810E94BC298091E8008B778093E8007E
:105A90002DC0803859F58091E800877F8093E80019
:105AA0008091AD038093F1008091E8008E7773CFF1
:105AB00081111CC09091B4039230C0F48091E80031
:105AC000877F8093E8009093AD030E94522A8091D3
:105AD000AD03811106C08091E30087FD02C081E023
